{
  "_format": "hh3-artifact-1",
  "contractName": "FundingPool",
  "sourceName": "contracts/FundingPool.sol",
  "abi": [
    {
      "inputs": [
        {
          "internalType": "address",
          "name": "stablecoinAddress",
          "type": "address"
        }
      ],
      "stateMutability": "nonpayable",
      "type": "constructor"
    },
    {
      "inputs": [],
      "name": "AlreadyHasActiveLoan",
      "type": "error"
    },
    {
      "inputs": [],
      "name": "ExpectedAmountLessThanAmount",
      "type": "error"
    },
    {
      "inputs": [],
      "name": "InsufficientFunds",
      "type": "error"
    },
    {
      "inputs": [],
      "name": "InsufficientPoolFunds",
      "type": "error"
    },
    {
      "inputs": [],
      "name": "InvalidInstallmentAmount",
      "type": "error"
    },
    {
      "inputs": [],
      "name": "LoanAlreadyRepaid",
      "type": "error"
    },
    {
      "inputs": [],
      "name": "NothingToWithdraw",
      "type": "error"
    },
    {
      "inputs": [
        {
          "internalType": "address",
          "name": "token",
          "type": "address"
        }
      ],
      "name": "SafeERC20FailedOperation",
      "type": "error"
    },
    {
      "inputs": [],
      "name": "ZeroAmount",
      "type": "error"
    },
    {
      "anonymous": false,
      "inputs": [
        {
          "indexed": true,
          "internalType": "address",
          "name": "funder",
          "type": "address"
        },
        {
          "indexed": false,
          "internalType": "uint256",
          "name": "amount",
          "type": "uint256"
        }
      ],
      "name": "Deposited",
      "type": "event"
    },
    {
      "anonymous": false,
      "inputs": [
        {
          "indexed": true,
          "internalType": "address",
          "name": "borrower",
          "type": "address"
        },
        {
          "indexed": false,
          "internalType": "uint256",
          "name": "amount",
          "type": "uint256"
        },
        {
          "indexed": false,
          "internalType": "uint256",
          "name": "loanId",
          "type": "uint256"
        }
      ],
      "name": "Funded",
      "type": "event"
    },
    {
      "anonymous": false,
      "inputs": [
        {
          "indexed": true,
          "internalType": "address",
          "name": "borrower",
          "type": "address"
        },
        {
          "indexed": false,
          "internalType": "uint256",
          "name": "installmentAmount",
          "type": "uint256"
        },
        {
          "indexed": false,
          "internalType": "uint256",
          "name": "remainingAmount",
          "type": "uint256"
        },
        {
          "indexed": false,
          "internalType": "uint256",
          "name": "loanId",
          "type": "uint256"
        }
      ],
      "name": "InstallmentPaid",
      "type": "event"
    },
    {
      "anonymous": false,
      "inputs": [
        {
          "indexed": true,
          "internalType": "address",
          "name": "borrower",
          "type": "address"
        },
        {
          "indexed": false,
          "internalType": "uint256",
          "name": "principal",
          "type": "uint256"
        },
        {
          "indexed": false,
          "internalType": "uint256",
          "name": "interest",
          "type": "uint256"
        },
        {
          "indexed": false,
          "internalType": "uint256",
          "name": "loanId",
          "type": "uint256"
        }
      ],
      "name": "Repaid",
      "type": "event"
    },
    {
      "anonymous": false,
      "inputs": [
        {
          "indexed": true,
          "internalType": "address",
          "name": "funder",
          "type": "address"
        },
        {
          "indexed": false,
          "internalType": "uint256",
          "name": "amount",
          "type": "uint256"
        },
        {
          "indexed": false,
          "internalType": "uint256",
          "name": "interest",
          "type": "uint256"
        }
      ],
      "name": "Withdrawn",
      "type": "event"
    },
    {
      "inputs": [],
      "name": "ACC_PRECISION",
      "outputs": [
        {
          "internalType": "uint256",
          "name": "",
          "type": "uint256"
        }
      ],
      "stateMutability": "view",
      "type": "function"
    },
    {
      "inputs": [],
      "name": "accInterestPerShare",
      "outputs": [
        {
          "internalType": "uint256",
          "name": "",
          "type": "uint256"
        }
      ],
      "stateMutability": "view",
      "type": "function"
    },
    {
      "inputs": [
        {
          "internalType": "address",
          "name": "",
          "type": "address"
        }
      ],
      "name": "activeLoanOf",
      "outputs": [
        {
          "internalType": "uint256",
          "name": "",
          "type": "uint256"
        }
      ],
      "stateMutability": "view",
      "type": "function"
    },
    {
      "inputs": [
        {
          "internalType": "uint256",
          "name": "",
          "type": "uint256"
        }
      ],
      "name": "backends",
      "outputs": [
        {
          "internalType": "address",
          "name": "",
          "type": "address"
        }
      ],
      "stateMutability": "view",
      "type": "function"
    },
    {
      "inputs": [
        {
          "internalType": "uint256",
          "name": "amount",
          "type": "uint256"
        }
      ],
      "name": "canRequestFunding",
      "outputs": [
        {
          "internalType": "bool",
          "name": "",
          "type": "bool"
        }
      ],
      "stateMutability": "view",
      "type": "function"
    },
    {
      "inputs": [],
      "name": "deployer",
      "outputs": [
        {
          "internalType": "address",
          "name": "",
          "type": "address"
        }
      ],
      "stateMutability": "view",
      "type": "function"
    },
    {
      "inputs": [
        {
          "internalType": "uint256",
          "name": "amount",
          "type": "uint256"
        }
      ],
      "name": "depositPrincipal",
      "outputs": [],
      "stateMutability": "nonpayable",
      "type": "function"
    },
    {
      "inputs": [
        {
          "internalType": "uint256",
          "name": "",
          "type": "uint256"
        }
      ],
      "name": "funderList",
      "outputs": [
        {
          "internalType": "address",
          "name": "",
          "type": "address"
        }
      ],
      "stateMutability": "view",
      "type": "function"
    },
    {
      "inputs": [
        {
          "internalType": "address",
          "name": "",
          "type": "address"
        }
      ],
      "name": "funders",
      "outputs": [
        {
          "internalType": "uint256",
          "name": "principal",
          "type": "uint256"
        },
        {
          "internalType": "uint256",
          "name": "interestDebt",
          "type": "uint256"
        },
        {
          "internalType": "uint256",
          "name": "pendingInterest",
          "type": "uint256"
        }
      ],
      "stateMutability": "view",
      "type": "function"
    },
    {
      "inputs": [
        {
          "internalType": "address",
          "name": "borrowerAddr",
          "type": "address"
        }
      ],
      "name": "getActiveLoanId",
      "outputs": [
        {
          "internalType": "uint256",
          "name": "",
          "type": "uint256"
        }
      ],
      "stateMutability": "view",
      "type": "function"
    },
    {
      "inputs": [],
      "name": "getBackends",
      "outputs": [
        {
          "internalType": "address[]",
          "name": "",
          "type": "address[]"
        }
      ],
      "stateMutability": "view",
      "type": "function"
    },
    {
      "inputs": [
        {
          "internalType": "address",
          "name": "borrowerAddr",
          "type": "address"
        }
      ],
      "name": "getBorrowerInfo",
      "outputs": [
        {
          "internalType": "uint256",
          "name": "principal",
          "type": "uint256"
        },
        {
          "internalType": "uint256",
          "name": "pendingInterest",
          "type": "uint256"
        },
        {
          "internalType": "uint256",
          "name": "interestDebt",
          "type": "uint256"
        }
      ],
      "stateMutability": "view",
      "type": "function"
    },
    {
      "inputs": [
        {
          "internalType": "address",
          "name": "funderAddr",
          "type": "address"
        }
      ],
      "name": "getFunderInfo",
      "outputs": [
        {
          "internalType": "uint256",
          "name": "principal",
          "type": "uint256"
        },
        {
          "internalType": "uint256",
          "name": "pendingInterest",
          "type": "uint256"
        },
        {
          "internalType": "uint256",
          "name": "interestDebt",
          "type": "uint256"
        }
      ],
      "stateMutability": "view",
      "type": "function"
    },
    {
      "inputs": [
        {
          "internalType": "address",
          "name": "lenderAddr",
          "type": "address"
        }
      ],
      "name": "getLenderInfo",
      "outputs": [
        {
          "internalType": "uint256",
          "name": "principal",
          "type": "uint256"
        },
        {
          "internalType": "uint256",
          "name": "pendingInterest",
          "type": "uint256"
        },
        {
          "internalType": "uint256",
          "name": "interestDebt",
          "type": "uint256"
        }
      ],
      "stateMutability": "view",
      "type": "function"
    },
    {
      "inputs": [
        {
          "internalType": "uint256",
          "name": "loanId_",
          "type": "uint256"
        }
      ],
      "name": "getLoanInfo",
      "outputs": [
        {
          "internalType": "uint256",
          "name": "amount",
          "type": "uint256"
        },
        {
          "internalType": "address",
          "name": "borrower",
          "type": "address"
        },
        {
          "internalType": "bool",
          "name": "repaid",
          "type": "bool"
        },
        {
          "internalType": "uint256",
          "name": "remainingAmount",
          "type": "uint256"
        },
        {
          "internalType": "uint256",
          "name": "totalRepaid",
          "type": "uint256"
        }
      ],
      "stateMutability": "view",
      "type": "function"
    },
    {
      "inputs": [
        {
          "internalType": "uint256",
          "name": "",
          "type": "uint256"
        }
      ],
      "name": "loans",
      "outputs": [
        {
          "internalType": "uint256",
          "name": "amount",
          "type": "uint256"
        },
        {
          "internalType": "address",
          "name": "borrower",
          "type": "address"
        },
        {
          "internalType": "bool",
          "name": "repaid",
          "type": "bool"
        },
        {
          "internalType": "uint256",
          "name": "principalAtCreation",
          "type": "uint256"
        },
        {
          "internalType": "uint256",
          "name": "remainingAmount",
          "type": "uint256"
        },
        {
          "internalType": "uint256",
          "name": "totalRepaid",
          "type": "uint256"
        }
      ],
      "stateMutability": "view",
      "type": "function"
    },
    {
      "inputs": [],
      "name": "nextLoanId",
      "outputs": [
        {
          "internalType": "uint256",
          "name": "",
          "type": "uint256"
        }
      ],
      "stateMutability": "view",
      "type": "function"
    },
    {
      "inputs": [
        {
          "internalType": "uint256",
          "name": "loanId_",
          "type": "uint256"
        },
        {
          "internalType": "uint256",
          "name": "installmentAmount",
          "type": "uint256"
        }
      ],
      "name": "repayAmountForLoan",
      "outputs": [],
      "stateMutability": "nonpayable",
      "type": "function"
    },
    {
      "inputs": [
        {
          "internalType": "address",
          "name": "borrower",
          "type": "address"
        },
        {
          "internalType": "uint256",
          "name": "amount",
          "type": "uint256"
        },
        {
          "internalType": "uint256",
          "name": "expectedAmount",
          "type": "uint256"
        }
      ],
      "name": "requestFundingForBorrower",
      "outputs": [],
      "stateMutability": "nonpayable",
      "type": "function"
    },
    {
      "inputs": [
        {
          "internalType": "address[]",
          "name": "newBackends",
          "type": "address[]"
        }
      ],
      "name": "setBackends",
      "outputs": [],
      "stateMutability": "nonpayable",
      "type": "function"
    },
    {
      "inputs": [
        {
          "internalType": "address",
          "name": "newUsdcWallet",
          "type": "address"
        }
      ],
      "name": "setUsdcWallet",
      "outputs": [],
      "stateMutability": "nonpayable",
      "type": "function"
    },
    {
      "inputs": [],
      "name": "stablecoin",
      "outputs": [
        {
          "internalType": "contract IERC20",
          "name": "",
          "type": "address"
        }
      ],
      "stateMutability": "view",
      "type": "function"
    },
    {
      "inputs": [],
      "name": "totalPrincipal",
      "outputs": [
        {
          "internalType": "uint256",
          "name": "",
          "type": "uint256"
        }
      ],
      "stateMutability": "view",
      "type": "function"
    },
    {
      "inputs": [],
      "name": "usdcWallet",
      "outputs": [
        {
          "internalType": "address",
          "name": "",
          "type": "address"
        }
      ],
      "stateMutability": "view",
      "type": "function"
    },
    {
      "inputs": [],
      "name": "withdrawInterest",
      "outputs": [],
      "stateMutability": "nonpayable",
      "type": "function"
    },
    {
      "inputs": [],
      "name": "withdrawPrincipal",
      "outputs": [],
      "stateMutability": "nonpayable",
      "type": "function"
    },
    {
      "inputs": [
        {
          "internalType": "uint256",
          "name": "amount",
          "type": "uint256"
        }
      ],
      "name": "withdrawPrincipalAmount",
      "outputs": [],
      "stateMutability": "nonpayable",
      "type": "function"
    }
  ],
  "bytecode": "0x60c060405234801561000f575f5ffd5b506040516116d83803806116d883398101604081905261002e91610043565b3360a0526001600160a01b0316608052610070565b5f60208284031215610053575f5ffd5b81516001600160a01b0381168114610069575f5ffd5b9392505050565b60805160a05161160f6100c95f395f818161042c015281816109f10152610cf301525f81816104fb015281816105e40152818161085b0152818161098801528181610b5301528181610e4f0152610fbd015261160f5ff3fe608060405234801561000f575f5ffd5b50600436106101a0575f3560e01c806398325656116100f3578063e1683e2d11610093578063e9cbd8221161006e578063e9cbd822146104f6578063ee12d6221461051d578063ef8d496414610530578063fea6ff9c14610543575f5ffd5b8063e1683e2d1461044e578063e1ec3c6814610463578063e1f06f54146104ee575f5ffd5b8063be7a0f61116100ce578063be7a0f61146103ef578063cefb46c714610402578063cf1cbc3a14610414578063d5f3948814610427575f5ffd5b8063983256561461037f578063ab19f095146103a7578063b9e3f33e146103dc575f5ffd5b80634b1533b21161015e5780636f653e3a116101395780636f653e3a1461031557806383a870051461035a57806387c5145914610363578063976655451461036c575f5ffd5b80634b1533b2146102ce57806363be8571146102d75780636936851914610302575f5ffd5b806263750c146101a4578063031b3677146101ae5780630714012c146101fc5780631304170e1461027b5780632f09d0831461029e57806332fcd966146102b1575b5f5ffd5b6101ac610562565b005b6101dc6101bc3660046113e6565b60036020525f908152604090208054600182015460029092015490919083565b604080519384526020840192909252908201526060015b60405180910390f35b61024561020a366004611406565b5f90815260026020526040902080546001820154600383015460049093015491936001600160a01b03821693600160a01b90920460ff169290565b604080519586526001600160a01b039094166020860152911515928401929092526060830191909152608082015260a0016101f3565b61028e610289366004611406565b61064c565b60405190151581526020016101f3565b6101ac6102ac36600461141d565b61067b565b6102c0670de0b6b3a764000081565b6040519081526020016101f3565b6102c060075481565b6102ea6102e5366004611406565b6108c8565b6040516001600160a01b0390911681526020016101f3565b6101ac610310366004611406565b6108f0565b6101dc6103233660046113e6565b6001600160a01b03165f90815260046020818152604080842054845260029091529091208054918101546003909101549192909190565b6102c060085481565b6102c060065481565b6101ac61037a36600461144d565b6109e6565b6102c061038d3660046113e6565b6001600160a01b03165f9081526004602052604090205490565b6101dc6103b53660046113e6565b6001600160a01b03165f908152600360205260409020805460028201546001909201549092565b6101ac6103ea3660046114be565b610a6f565b6102ea6103fd366004611406565b610cd9565b5f546102ea906001600160a01b031681565b6101ac6104223660046113e6565b610ce8565b6102ea7f000000000000000000000000000000000000000000000000000000000000000081565b610456610d81565b6040516101f391906114de565b6104b3610471366004611406565b600260208190525f91825260409091208054600182015492820154600383015460049093015491936001600160a01b03811693600160a01b90910460ff169286565b604080519687526001600160a01b039095166020870152921515938501939093526060840152608083019190915260a082015260c0016101f3565b6101ac610de1565b6102ea7f000000000000000000000000000000000000000000000000000000000000000081565b6101dc61052b3660046113e6565b610ead565b6101ac61053e366004611406565b610f2d565b6102c06105513660046113e6565b60046020525f908152604090205481565b3361056c81611046565b335f9081526003602052604090206002810154806105d15760405162461bcd60e51b815260206004820152601760248201527f4e6f20696e74657265737420746f20776974686472617700000000000000000060448201526064015b60405180910390fd5b5f600283015561060b6001600160a01b037f00000000000000000000000000000000000000000000000000000000000000001633836110be565b604080515f81526020810183905233917f92ccf450a286a957af52509bc1c9939d1a6a481783e142e41e2499f0bb66ebc691015b60405180910390a2505050565b335f9081526004602052604081205415801561066757505f82115b801561067557506007548211155b92915050565b6106843361111d565b6106d05760405162461bcd60e51b815260206004820152601a60248201527f4f6e6c79206261636b656e642063616e20617574686f72697a6500000000000060448201526064016105c8565b6001600160a01b0383165f90815260046020526040902054156107065760405163bd92ac8560e01b815260040160405180910390fd5b815f0361072657604051631f2a200560e01b815260040160405180910390fd5b600754821115610749576040516316d5c93f60e21b815260040160405180910390fd5b8181101561076a5760405163f0d2c41760e01b815260040160405180910390fd5b8160075f82825461077b919061153d565b909155505060068054905f61078f83611550565b91905055506040518060c00160405280838152602001846001600160a01b031681526020015f15158152602001836007546107ca9190611568565b815260208082018490525f604092830181905260068054825260028084528483208651815586850151600182018054898901511515600160a01b026001600160a81b03199091166001600160a01b03938416171790556060880151928201929092556080870151600382015560a09096015160049687015590548882168352949092529190912091909155610882907f00000000000000000000000000000000000000000000000000000000000000001684846110be565b826001600160a01b03167fcd909ec339185c4598a4096e174308fbdf136d117f230960f873a2f2e81f63af8360065460405161063f929190918252602082015260400190565b600181815481106108d7575f80fd5b5f918252602090912001546001600160a01b0316905081565b336108fa81611046565b335f9081526003602052604081209083900361092957604051631f2a200560e01b815260040160405180910390fd5b805483111561094b5760405163356680b760e01b815260040160405180910390fd5b82815f015f82825461095d919061153d565b925050819055508260075f828254610975919061153d565b909155506109af90506001600160a01b037f00000000000000000000000000000000000000000000000000000000000000001633856110be565b604080518481525f602082015233917f92ccf450a286a957af52509bc1c9939d1a6a481783e142e41e2499f0bb66ebc6910161063f565b336001600160a01b037f00000000000000000000000000000000000000000000000000000000000000001614610a5e5760405162461bcd60e51b815260206004820152601b60248201527f4f6e6c79206465706c6f7965722063616e2063616c6c2074686973000000000060448201526064016105c8565b610a6a60018383611356565b505050565b610a783361111d565b610ac45760405162461bcd60e51b815260206004820152601a60248201527f4f6e6c79206261636b656e642063616e20617574686f72697a6500000000000060448201526064016105c8565b5f8281526002602052604090206001810154600160a01b900460ff1615610afe57604051630bfc919760e21b815260040160405180910390fd5b815f03610b1e57604051631f2a200560e01b815260040160405180910390fd5b8060030154821115610b4357604051631417f39f60e01b815260040160405180910390fd5b5f54610b7d906001600160a01b037f0000000000000000000000000000000000000000000000000000000000000000811691163085611179565b81816004015f828254610b909190611568565b9250508190555081816003015f828254610baa919061153d565b909155505060038101545f03610c855760018101805460ff60a01b198116600160a01b179091556001600160a01b03165f90815260046020526040812081905581546007805491929091610bff908490611568565b9091555050805460048201545f91610c169161153d565b90508015610c2c57610c2c8183600201546111b8565b60018201548254604080519182526020820184905281018690526001600160a01b03909116907f07178c166b5aef4d8409e6bbfd0e7b1ad42c92eb65903a5e5482166f3f4e62f09060600160405180910390a250505050565b6001810154600382015460408051858152602081019290925281018590526001600160a01b03909116907f1338839d56446b36e5073895caa0adf0cefc8ba27d7ed85d46c9a2913585cad29060600161063f565b600581815481106108d7575f80fd5b336001600160a01b037f00000000000000000000000000000000000000000000000000000000000000001614610d605760405162461bcd60e51b815260206004820152601b60248201527f4f6e6c79206465706c6f7965722063616e2063616c6c2074686973000000000060448201526064016105c8565b5f80546001600160a01b0319166001600160a01b0392909216919091179055565b60606001805480602002602001604051908101604052809291908181526020018280548015610dd757602002820191905f5260205f20905b81546001600160a01b03168152600190910190602001808311610db9575b5050505050905090565b33610deb81611046565b335f90815260036020526040812080549091819003610e1d57604051630686827b60e51b815260040160405180910390fd5b5f80835560078054839290610e3390849061153d565b90915550610e429050336111f5565b610e766001600160a01b037f00000000000000000000000000000000000000000000000000000000000000001633836110be565b604080518281525f602082015233917f92ccf450a286a957af52509bc1c9939d1a6a481783e142e41e2499f0bb66ebc6910161063f565b6001600160a01b0381165f9081526003602052604081206002810154815483928392909115610f18575f670de0b6b3a76400008360010154600854610ef2919061153d565b8454610efe919061157b565b610f089190611592565b9050610f148183611568565b9150505b81546001909201549196909550909350915050565b33610f3781611046565b815f03610f5757604051631f2a200560e01b815260040160405180910390fd5b335f9081526003602052604081208054909103610fb057600580546001810182555f919091527f036b6384b5eca791c62761152d0c79bb0604c104a5fb6f4eb0703f3154bb3db00180546001600160a01b031916331790555b610fe56001600160a01b037f000000000000000000000000000000000000000000000000000000000000000016333086611179565b82815f015f828254610ff79190611568565b925050819055508260075f82825461100f9190611568565b909155505060405183815233907f2da466a7b24304f47e87fa2e1e5a81b9831ce54fec19055ce277ca2f39ba42c49060200161063f565b6001600160a01b0381165f9081526003602052604090208054156110b2575f670de0b6b3a76400008260010154600854611080919061153d565b835461108c919061157b565b6110969190611592565b905080826002015f8282546110ab9190611568565b9091555050505b60085460019091015550565b6040516001600160a01b03838116602483015260448201839052610a6a91859182169063a9059cbb906064015b604051602081830303815290604052915060e01b6020820180516001600160e01b0383818316178352505050506112ea565b5f805b60015481101561117157826001600160a01b031660018281548110611147576111476115b1565b5f918252602090912001546001600160a01b0316036111695750600192915050565b600101611120565b505f92915050565b6040516001600160a01b0384811660248301528381166044830152606482018390526111b29186918216906323b872dd906084016110eb565b50505050565b80156111f157806111d1670de0b6b3a76400008461157b565b6111db9190611592565b60085f8282546111eb9190611568565b90915550505b5050565b5f5b6005548110156111f157816001600160a01b03166005828154811061121e5761121e6115b1565b5f918252602090912001546001600160a01b0316036112e257600580546112479060019061153d565b81548110611257576112576115b1565b5f91825260209091200154600580546001600160a01b039092169183908110611282576112826115b1565b905f5260205f20015f6101000a8154816001600160a01b0302191690836001600160a01b0316021790555060058054806112be576112be6115c5565b5f8281526020902081015f1990810180546001600160a01b03191690550190555050565b6001016111f7565b5f5f60205f8451602086015f885af180611309576040513d5f823e3d81fd5b50505f513d9150811561132057806001141561132d565b6001600160a01b0384163b155b156111b257604051635274afe760e01b81526001600160a01b03851660048201526024016105c8565b828054828255905f5260205f209081019282156113a7579160200282015b828111156113a75781546001600160a01b0319166001600160a01b03843516178255602090920191600190910190611374565b506113b39291506113b7565b5090565b5b808211156113b3575f81556001016113b8565b80356001600160a01b03811681146113e1575f5ffd5b919050565b5f602082840312156113f6575f5ffd5b6113ff826113cb565b9392505050565b5f60208284031215611416575f5ffd5b5035919050565b5f5f5f6060848603121561142f575f5ffd5b611438846113cb565b95602085013595506040909401359392505050565b5f5f6020838503121561145e575f5ffd5b823567ffffffffffffffff811115611474575f5ffd5b8301601f81018513611484575f5ffd5b803567ffffffffffffffff81111561149a575f5ffd5b8560208260051b84010111156114ae575f5ffd5b6020919091019590945092505050565b5f5f604083850312156114cf575f5ffd5b50508035926020909101359150565b602080825282518282018190525f918401906040840190835b8181101561151e5783516001600160a01b03168352602093840193909201916001016114f7565b509095945050505050565b634e487b7160e01b5f52601160045260245ffd5b8181038181111561067557610675611529565b5f6001820161156157611561611529565b5060010190565b8082018082111561067557610675611529565b808202811582820484141761067557610675611529565b5f826115ac57634e487b7160e01b5f52601260045260245ffd5b500490565b634e487b7160e01b5f52603260045260245ffd5b634e487b7160e01b5f52603160045260245ffdfea2646970667358221220ebb1557df2a3e5c79d3588adf69fab78f287fe9c054aa0091059254691aa974564736f6c634300081c0033",
  "linkReferences": {},
  "deployedLinkReferences": {},
  "immutableReferences": {
    "1717": [
      {
        "length": 32,
        "start": 1275
      },
      {
        "length": 32,
        "start": 1508
      },
      {
        "length": 32,
        "start": 2139
      },
      {
        "length": 32,
        "start": 2440
      },
      {
        "length": 32,
        "start": 2899
      },
      {
        "length": 32,
        "start": 3663
      },
      {
        "length": 32,
        "start": 4029
      }
    ],
    "1719": [
      {
        "length": 32,
        "start": 1068
      },
      {
        "length": 32,
        "start": 2545
      },
      {
        "length": 32,
        "start": 3315
      }
    ]
  },
  "inputSourceName": "project/contracts/FundingPool.sol",
  "buildInfoId": "dea941112c6f0fa2f1be781be1bf7db7c7bf0ffd"
}